{
	"_format": "hh-sol-artifact-1",
	"contractName": "EternalNFT",
	"sourceName": "contracts/EternalNFT.sol",
	"abi": [
		{
			"inputs": [],
			"stateMutability": "nonpayable",
			"type": "constructor"
		},
		{
			"anonymous": false,
			"inputs": [
				{
					"indexed": true,
					"internalType": "address",
					"name": "owner",
					"type": "address"
				},
				{
					"indexed": true,
					"internalType": "address",
					"name": "approved",
					"type": "address"
				},
				{
					"indexed": true,
					"internalType": "uint256",
					"name": "tokenId",
					"type": "uint256"
				}
			],
			"name": "Approval",
			"type": "event"
		},
		{
			"anonymous": false,
			"inputs": [
				{
					"indexed": true,
					"internalType": "address",
					"name": "owner",
					"type": "address"
				},
				{
					"indexed": true,
					"internalType": "address",
					"name": "operator",
					"type": "address"
				},
				{
					"indexed": false,
					"internalType": "bool",
					"name": "approved",
					"type": "bool"
				}
			],
			"name": "ApprovalForAll",
			"type": "event"
		},
		{
			"anonymous": false,
			"inputs": [
				{
					"indexed": true,
					"internalType": "address",
					"name": "from",
					"type": "address"
				},
				{
					"indexed": true,
					"internalType": "address",
					"name": "to",
					"type": "address"
				},
				{
					"indexed": true,
					"internalType": "uint256",
					"name": "tokenId",
					"type": "uint256"
				}
			],
			"name": "Transfer",
			"type": "event"
		},
		{
			"inputs": [
				{
					"internalType": "address",
					"name": "to",
					"type": "address"
				},
				{
					"internalType": "uint256",
					"name": "tokenId",
					"type": "uint256"
				}
			],
			"name": "approve",
			"outputs": [],
			"stateMutability": "nonpayable",
			"type": "function"
		},
		{
			"inputs": [
				{
					"internalType": "address",
					"name": "owner",
					"type": "address"
				}
			],
			"name": "balanceOf",
			"outputs": [
				{
					"internalType": "uint256",
					"name": "",
					"type": "uint256"
				}
			],
			"stateMutability": "view",
			"type": "function"
		},
		{
			"inputs": [],
			"name": "collectionName",
			"outputs": [
				{
					"internalType": "string",
					"name": "",
					"type": "string"
				}
			],
			"stateMutability": "view",
			"type": "function"
		},
		{
			"inputs": [],
			"name": "collectionSymbol",
			"outputs": [
				{
					"internalType": "string",
					"name": "",
					"type": "string"
				}
			],
			"stateMutability": "view",
			"type": "function"
		},
		{
			"inputs": [],
			"name": "createEternalNFT",
			"outputs": [
				{
					"internalType": "uint256",
					"name": "",
					"type": "uint256"
				}
			],
			"stateMutability": "nonpayable",
			"type": "function"
		},
		{
			"inputs": [
				{
					"internalType": "uint256",
					"name": "tokenId",
					"type": "uint256"
				}
			],
			"name": "getApproved",
			"outputs": [
				{
					"internalType": "address",
					"name": "",
					"type": "address"
				}
			],
			"stateMutability": "view",
			"type": "function"
		},
		{
			"inputs": [
				{
					"internalType": "address",
					"name": "owner",
					"type": "address"
				},
				{
					"internalType": "address",
					"name": "operator",
					"type": "address"
				}
			],
			"name": "isApprovedForAll",
			"outputs": [
				{
					"internalType": "bool",
					"name": "",
					"type": "bool"
				}
			],
			"stateMutability": "view",
			"type": "function"
		},
		{
			"inputs": [],
			"name": "name",
			"outputs": [
				{
					"internalType": "string",
					"name": "",
					"type": "string"
				}
			],
			"stateMutability": "view",
			"type": "function"
		},
		{
			"inputs": [
				{
					"internalType": "uint256",
					"name": "tokenId",
					"type": "uint256"
				}
			],
			"name": "ownerOf",
			"outputs": [
				{
					"internalType": "address",
					"name": "",
					"type": "address"
				}
			],
			"stateMutability": "view",
			"type": "function"
		},
		{
			"inputs": [
				{
					"internalType": "uint256",
					"name": "tokenId",
					"type": "uint256"
				}
			],
			"name": "pickFirstWord",
			"outputs": [
				{
					"internalType": "string",
					"name": "",
					"type": "string"
				}
			],
			"stateMutability": "view",
			"type": "function"
		},
		{
			"inputs": [
				{
					"internalType": "uint256",
					"name": "tokenId",
					"type": "uint256"
				}
			],
			"name": "pickSecondWord",
			"outputs": [
				{
					"internalType": "string",
					"name": "",
					"type": "string"
				}
			],
			"stateMutability": "view",
			"type": "function"
		},
		{
			"inputs": [
				{
					"internalType": "uint256",
					"name": "tokenId",
					"type": "uint256"
				}
			],
			"name": "pickThirdWord",
			"outputs": [
				{
					"internalType": "string",
					"name": "",
					"type": "string"
				}
			],
			"stateMutability": "view",
			"type": "function"
		},
		{
			"inputs": [
				{
					"internalType": "address",
					"name": "from",
					"type": "address"
				},
				{
					"internalType": "address",
					"name": "to",
					"type": "address"
				},
				{
					"internalType": "uint256",
					"name": "tokenId",
					"type": "uint256"
				}
			],
			"name": "safeTransferFrom",
			"outputs": [],
			"stateMutability": "nonpayable",
			"type": "function"
		},
		{
			"inputs": [
				{
					"internalType": "address",
					"name": "from",
					"type": "address"
				},
				{
					"internalType": "address",
					"name": "to",
					"type": "address"
				},
				{
					"internalType": "uint256",
					"name": "tokenId",
					"type": "uint256"
				},
				{
					"internalType": "bytes",
					"name": "_data",
					"type": "bytes"
				}
			],
			"name": "safeTransferFrom",
			"outputs": [],
			"stateMutability": "nonpayable",
			"type": "function"
		},
		{
			"inputs": [
				{
					"internalType": "address",
					"name": "operator",
					"type": "address"
				},
				{
					"internalType": "bool",
					"name": "approved",
					"type": "bool"
				}
			],
			"name": "setApprovalForAll",
			"outputs": [],
			"stateMutability": "nonpayable",
			"type": "function"
		},
		{
			"inputs": [
				{
					"internalType": "bytes4",
					"name": "interfaceId",
					"type": "bytes4"
				}
			],
			"name": "supportsInterface",
			"outputs": [
				{
					"internalType": "bool",
					"name": "",
					"type": "bool"
				}
			],
			"stateMutability": "view",
			"type": "function"
		},
		{
			"inputs": [],
			"name": "symbol",
			"outputs": [
				{
					"internalType": "string",
					"name": "",
					"type": "string"
				}
			],
			"stateMutability": "view",
			"type": "function"
		},
		{
			"inputs": [
				{
					"internalType": "uint256",
					"name": "tokenId",
					"type": "uint256"
				}
			],
			"name": "tokenURI",
			"outputs": [
				{
					"internalType": "string",
					"name": "",
					"type": "string"
				}
			],
			"stateMutability": "view",
			"type": "function"
		},
		{
			"inputs": [
				{
					"internalType": "address",
					"name": "from",
					"type": "address"
				},
				{
					"internalType": "address",
					"name": "to",
					"type": "address"
				},
				{
					"internalType": "uint256",
					"name": "tokenId",
					"type": "uint256"
				}
			],
			"name": "transferFrom",
			"outputs": [],
			"stateMutability": "nonpayable",
			"type": "function"
		}
	],
	"bytecode": "0x608060405260405180610160016040528061012f81526020016200421d61012f9139600a9080519060200190620000389291906200079c565b506040518060e001604052806040518060400160405280600481526020017f466972650000000000000000000000000000000000000000000000000000000081525081526020016040518060400160405280600481526020017f57696e640000000000000000000000000000000000000000000000000000000081525081526020016040518060400160405280600481526020017f576176650000000000000000000000000000000000000000000000000000000081525081526020016040518060400160405280600581526020017f456172746800000000000000000000000000000000000000000000000000000081525081526020016040518060400160405280600781526020017f5468756e6465720000000000000000000000000000000000000000000000000081525081526020016040518060400160405280600581526020017f537061636500000000000000000000000000000000000000000000000000000081525081526020016040518060400160405280600481526020017f54696d6500000000000000000000000000000000000000000000000000000000815250815250600b906007620001f19291906200082d565b506040518060e001604052806040518060400160405280600581526020017f53776f726400000000000000000000000000000000000000000000000000000081525081526020016040518060400160405280600581526020017f537065617200000000000000000000000000000000000000000000000000000081525081526020016040518060400160405280600681526020017f536869656c64000000000000000000000000000000000000000000000000000081525081526020016040518060400160405280600681526020017f48616d6d6572000000000000000000000000000000000000000000000000000081525081526020016040518060400160405280600581526020017f536162657200000000000000000000000000000000000000000000000000000081525081526020016040518060400160405280600381526020017f417865000000000000000000000000000000000000000000000000000000000081525081526020016040518060400160405280600381526020017f426f770000000000000000000000000000000000000000000000000000000000815250815250600c906007620003aa9291906200082d565b506040518060e001604052806040518060400160405280600481526020017f4c6f72640000000000000000000000000000000000000000000000000000000081525081526020016040518060400160405280600481526020017f4b696e670000000000000000000000000000000000000000000000000000000081525081526020016040518060400160405280600781526020017f456d7065726f720000000000000000000000000000000000000000000000000081525081526020016040518060400160405280600981526020017f56656e657261626c65000000000000000000000000000000000000000000000081525081526020016040518060400160405280600881526020017f416e636573746f7200000000000000000000000000000000000000000000000081525081526020016040518060400160405280600581526020017f5361696e7400000000000000000000000000000000000000000000000000000081525081526020016040518060400160405280600381526020017f476f640000000000000000000000000000000000000000000000000000000000815250815250600d906007620005639291906200082d565b503480156200057157600080fd5b506040518060400160405280600a81526020017f457465726e616c4e4654000000000000000000000000000000000000000000008152506040518060400160405280600481526020017f454e4654000000000000000000000000000000000000000000000000000000008152508160009080519060200190620005f69291906200079c565b5080600190805190602001906200060f9291906200079c565b505050620006226200066860201b60201c565b60089080519060200190620006399291906200079c565b506200064a6200070260201b60201c565b60099080519060200190620006619291906200079c565b5062000986565b606060008054620006799062000921565b80601f0160208091040260200160405190810160405280929190818152602001828054620006a79062000921565b8015620006f85780601f10620006cc57610100808354040283529160200191620006f8565b820191906000526020600020905b815481529060010190602001808311620006da57829003601f168201915b5050505050905090565b606060018054620007139062000921565b80601f0160208091040260200160405190810160405280929190818152602001828054620007419062000921565b8015620007925780601f10620007665761010080835404028352916020019162000792565b820191906000526020600020905b8154815290600101906020018083116200077457829003601f168201915b5050505050905090565b828054620007aa9062000921565b90600052602060002090601f016020900481019282620007ce57600085556200081a565b82601f10620007e957805160ff19168380011785556200081a565b828001600101855582156200081a579182015b8281111562000819578251825591602001919060010190620007fc565b5b50905062000829919062000894565b5090565b82805482825590600052602060002090810192821562000881579160200282015b82811115620008805782518290805190602001906200086f9291906200079c565b50916020019190600101906200084e565b5b509050620008909190620008b3565b5090565b5b80821115620008af57600081600090555060010162000895565b5090565b5b80821115620008d75760008181620008cd9190620008db565b50600101620008b4565b5090565b508054620008e99062000921565b6000825580601f10620008fd57506200091e565b601f0160209004906000526020600020908101906200091d919062000894565b5b50565b600060028204905060018216806200093a57607f821691505b6020821081141562000951576200095062000957565b5b50919050565b7f4e487b7100000000000000000000000000000000000000000000000000000000600052602260045260246000fd5b61388780620009966000396000f3fe608060405234801561001057600080fd5b50600436106101215760003560e01c80636352211e116100ad578063c630338611610071578063c63033861461031a578063c87b56dd1461034a578063e2d2c3081461037a578063e5326ab1146103aa578063e985e9c5146103c857610121565b80636352211e1461026457806370a082311461029457806395d89b41146102c4578063a22cb465146102e2578063b88d4fde146102fe57610121565b806323b872dd116100f457806323b872dd146101c05780632f39352a146101dc5780633330880e146101fa5780633bad0d361461021857806342842e0e1461024857610121565b806301ffc9a71461012657806306fdde0314610156578063081812fc14610174578063095ea7b3146101a4575b600080fd5b610140600480360381019061013b9190612407565b6103f8565b60405161014d9190612b02565b60405180910390f35b61015e6104da565b60405161016b9190612b1d565b60405180910390f35b61018e60048036038101906101899190612459565b61056c565b60405161019b9190612a9b565b60405180910390f35b6101be60048036038101906101b991906123cb565b6105f1565b005b6101da60048036038101906101d591906122c5565b610709565b005b6101e4610769565b6040516101f19190612b1d565b60405180910390f35b6102026107f7565b60405161020f9190612d3f565b60405180910390f35b610232600480360381019061022d9190612459565b610906565b60405161023f9190612b1d565b60405180910390f35b610262600480360381019061025d91906122c5565b610a24565b005b61027e60048036038101906102799190612459565b610a44565b60405161028b9190612a9b565b60405180910390f35b6102ae60048036038101906102a99190612260565b610af6565b6040516102bb9190612d3f565b60405180910390f35b6102cc610bae565b6040516102d99190612b1d565b60405180910390f35b6102fc60048036038101906102f7919061238f565b610c40565b005b61031860048036038101906103139190612314565b610c56565b005b610334600480360381019061032f9190612459565b610cb8565b6040516103419190612b1d565b60405180910390f35b610364600480360381019061035f9190612459565b610dd6565b6040516103719190612b1d565b60405180910390f35b610394600480360381019061038f9190612459565b610f28565b6040516103a19190612b1d565b60405180910390f35b6103b2611046565b6040516103bf9190612b1d565b60405180910390f35b6103e260048036038101906103dd9190612289565b6110d4565b6040516103ef9190612b02565b60405180910390f35b60007f80ac58cd000000000000000000000000000000000000000000000000000000007bffffffffffffffffffffffffffffffffffffffffffffffffffffffff1916827bffffffffffffffffffffffffffffffffffffffffffffffffffffffff191614806104c357507f5b5e139f000000000000000000000000000000000000000000000000000000007bffffffffffffffffffffffffffffffffffffffffffffffffffffffff1916827bffffffffffffffffffffffffffffffffffffffffffffffffffffffff1916145b806104d357506104d282611168565b5b9050919050565b6060600080546104e990612fd3565b80601f016020809104026020016040519081016040528092919081815260200182805461051590612fd3565b80156105625780601f1061053757610100808354040283529160200191610562565b820191906000526020600020905b81548152906001019060200180831161054557829003601f168201915b5050505050905090565b6000610577826111d2565b6105b6576040517f08c379a00000000000000000000000000000000000000000000000000000000081526004016105ad90612c9f565b60405180910390fd5b6004600083815260200190815260200160002060009054906101000a900473ffffffffffffffffffffffffffffffffffffffff169050919050565b60006105fc82610a44565b90508073ffffffffffffffffffffffffffffffffffffffff168373ffffffffffffffffffffffffffffffffffffffff16141561066d576040517f08c379a000000000000000000000000000000000000000000000000000000000815260040161066490612cff565b60405180910390fd5b8073ffffffffffffffffffffffffffffffffffffffff1661068c61123e565b73ffffffffffffffffffffffffffffffffffffffff1614806106bb57506106ba816106b561123e565b6110d4565b5b6106fa576040517f08c379a00000000000000000000000000000000000000000000000000000000081526004016106f190612bdf565b60405180910390fd5b6107048383611246565b505050565b61071a61071461123e565b826112ff565b610759576040517f08c379a000000000000000000000000000000000000000000000000000000000815260040161075090612d1f565b60405180910390fd5b6107648383836113dd565b505050565b6009805461077690612fd3565b80601f01602080910402602001604051908101604052809291908181526020018280546107a290612fd3565b80156107ef5780601f106107c4576101008083540402835291602001916107ef565b820191906000526020600020905b8154815290600101906020018083116107d257829003601f168201915b505050505081565b6000806108046007611639565b9050600061081182610906565b9050600061081e83610cb8565b9050600061082b84610f28565b9050600083838360405160200161084493929190612954565b60405160208183030381529060405290506000600a85858560405160200161086f9493929190612985565b604051602081830303815290604052905060006108b48361088f84611647565b6040516020016108a0929190612a12565b604051602081830303815290604052611647565b90506000816040516020016108c99190612a79565b60405160208183030381529060405290506108e43389611805565b6108ee8882611823565b6108f86007611897565b879850505050505050505090565b6060600061093a610916846118ad565b6040516020016109269190612a57565b604051602081830303815290604052611a5a565b9050600b805490508161094d919061307f565b9050600b8181548110610989577f4e487b7100000000000000000000000000000000000000000000000000000000600052603260045260246000fd5b90600052602060002001805461099e90612fd3565b80601f01602080910402602001604051908101604052809291908181526020018280546109ca90612fd3565b8015610a175780601f106109ec57610100808354040283529160200191610a17565b820191906000526020600020905b8154815290600101906020018083116109fa57829003601f168201915b5050505050915050919050565b610a3f83838360405180602001604052806000815250610c56565b505050565b6000806002600084815260200190815260200160002060009054906101000a900473ffffffffffffffffffffffffffffffffffffffff169050600073ffffffffffffffffffffffffffffffffffffffff168173ffffffffffffffffffffffffffffffffffffffff161415610aed576040517f08c379a0000000000000000000000000000000000000000000000000000000008152600401610ae490612c1f565b60405180910390fd5b80915050919050565b60008073ffffffffffffffffffffffffffffffffffffffff168273ffffffffffffffffffffffffffffffffffffffff161415610b67576040517f08c379a0000000000000000000000000000000000000000000000000000000008152600401610b5e90612bff565b60405180910390fd5b600360008373ffffffffffffffffffffffffffffffffffffffff1673ffffffffffffffffffffffffffffffffffffffff168152602001908152602001600020549050919050565b606060018054610bbd90612fd3565b80601f0160208091040260200160405190810160405280929190818152602001828054610be990612fd3565b8015610c365780601f10610c0b57610100808354040283529160200191610c36565b820191906000526020600020905b815481529060010190602001808311610c1957829003601f168201915b5050505050905090565b610c52610c4b61123e565b8383611a8d565b5050565b610c67610c6161123e565b836112ff565b610ca6576040517f08c379a0000000000000000000000000000000000000000000000000000000008152600401610c9d90612d1f565b60405180910390fd5b610cb284848484611bfa565b50505050565b60606000610cec610cc8846118ad565b604051602001610cd891906129ce565b604051602081830303815290604052611a5a565b9050600c8054905081610cff919061307f565b9050600c8181548110610d3b577f4e487b7100000000000000000000000000000000000000000000000000000000600052603260045260246000fd5b906000526020600020018054610d5090612fd3565b80601f0160208091040260200160405190810160405280929190818152602001828054610d7c90612fd3565b8015610dc95780601f10610d9e57610100808354040283529160200191610dc9565b820191906000526020600020905b815481529060010190602001808311610dac57829003601f168201915b5050505050915050919050565b6060610de1826111d2565b610e20576040517f08c379a0000000000000000000000000000000000000000000000000000000008152600401610e1790612c7f565b60405180910390fd5b6000600660008481526020019081526020016000208054610e4090612fd3565b80601f0160208091040260200160405190810160405280929190818152602001828054610e6c90612fd3565b8015610eb95780601f10610e8e57610100808354040283529160200191610eb9565b820191906000526020600020905b815481529060010190602001808311610e9c57829003601f168201915b505050505090506000610eca611c56565b9050600081511415610ee0578192505050610f23565b600082511115610f15578082604051602001610efd929190612930565b60405160208183030381529060405292505050610f23565b610f1e84611c6d565b925050505b919050565b60606000610f5c610f38846118ad565b604051602001610f4891906129f0565b604051602081830303815290604052611a5a565b9050600d8054905081610f6f919061307f565b9050600d8181548110610fab577f4e487b7100000000000000000000000000000000000000000000000000000000600052603260045260246000fd5b906000526020600020018054610fc090612fd3565b80601f0160208091040260200160405190810160405280929190818152602001828054610fec90612fd3565b80156110395780601f1061100e57610100808354040283529160200191611039565b820191906000526020600020905b81548152906001019060200180831161101c57829003601f168201915b5050505050915050919050565b6008805461105390612fd3565b80601f016020809104026020016040519081016040528092919081815260200182805461107f90612fd3565b80156110cc5780601f106110a1576101008083540402835291602001916110cc565b820191906000526020600020905b8154815290600101906020018083116110af57829003601f168201915b505050505081565b6000600560008473ffffffffffffffffffffffffffffffffffffffff1673ffffffffffffffffffffffffffffffffffffffff16815260200190815260200160002060008373ffffffffffffffffffffffffffffffffffffffff1673ffffffffffffffffffffffffffffffffffffffff16815260200190815260200160002060009054906101000a900460ff16905092915050565b60007f01ffc9a7000000000000000000000000000000000000000000000000000000007bffffffffffffffffffffffffffffffffffffffffffffffffffffffff1916827bffffffffffffffffffffffffffffffffffffffffffffffffffffffff1916149050919050565b60008073ffffffffffffffffffffffffffffffffffffffff166002600084815260200190815260200160002060009054906101000a900473ffffffffffffffffffffffffffffffffffffffff1673ffffffffffffffffffffffffffffffffffffffff1614159050919050565b600033905090565b816004600083815260200190815260200160002060006101000a81548173ffffffffffffffffffffffffffffffffffffffff021916908373ffffffffffffffffffffffffffffffffffffffff160217905550808273ffffffffffffffffffffffffffffffffffffffff166112b983610a44565b73ffffffffffffffffffffffffffffffffffffffff167f8c5be1e5ebec7d5bd14f71427d1e84f3dd0314c0f7b2291e5b200ac8c7c3b92560405160405180910390a45050565b600061130a826111d2565b611349576040517f08c379a000000000000000000000000000000000000000000000000000000000815260040161134090612bbf565b60405180910390fd5b600061135483610a44565b90508073ffffffffffffffffffffffffffffffffffffffff168473ffffffffffffffffffffffffffffffffffffffff1614806113c357508373ffffffffffffffffffffffffffffffffffffffff166113ab8461056c565b73ffffffffffffffffffffffffffffffffffffffff16145b806113d457506113d381856110d4565b5b91505092915050565b8273ffffffffffffffffffffffffffffffffffffffff166113fd82610a44565b73ffffffffffffffffffffffffffffffffffffffff1614611453576040517f08c379a000000000000000000000000000000000000000000000000000000000815260040161144a90612cbf565b60405180910390fd5b600073ffffffffffffffffffffffffffffffffffffffff168273ffffffffffffffffffffffffffffffffffffffff1614156114c3576040517f08c379a00000000000000000000000000000000000000000000000000000000081526004016114ba90612b7f565b60405180910390fd5b6114ce838383611d14565b6114d9600082611246565b6001600360008573ffffffffffffffffffffffffffffffffffffffff1673ffffffffffffffffffffffffffffffffffffffff16815260200190815260200160002060008282546115299190612ee9565b925050819055506001600360008473ffffffffffffffffffffffffffffffffffffffff1673ffffffffffffffffffffffffffffffffffffffff16815260200190815260200160002060008282546115809190612e08565b92505081905550816002600083815260200190815260200160002060006101000a81548173ffffffffffffffffffffffffffffffffffffffff021916908373ffffffffffffffffffffffffffffffffffffffff160217905550808273ffffffffffffffffffffffffffffffffffffffff168473ffffffffffffffffffffffffffffffffffffffff167fddf252ad1be2c89b69c2b068fc378daa952ba7f163c4a11628f55a4df523b3ef60405160405180910390a4505050565b600081600001549050919050565b606060008251905060008114156116705760405180602001604052806000815250915050611800565b600060036002836116819190612e08565b61168b9190612e5e565b60046116979190612e8f565b905060006020826116a89190612e08565b67ffffffffffffffff8111156116e7577f4e487b7100000000000000000000000000000000000000000000000000000000600052604160045260246000fd5b6040519080825280601f01601f1916602001820160405280156117195781602001600182028036833780820191505090505b5090506000604051806060016040528060408152602001613812604091399050600181016020830160005b868110156117bd5760038101905062ffffff818a015116603f8160121c168401518060081b905060ff603f83600c1c1686015116810190508060081b905060ff603f8360061c1686015116810190508060081b905060ff603f831686015116810190508060e01b90508084526004840193505050611744565b5060038606600181146117d757600281146117e7576117f2565b613d3d60f01b60028303526117f2565b603d60f81b60018303525b508484525050819450505050505b919050565b61181f828260405180602001604052806000815250611d19565b5050565b61182c826111d2565b61186b576040517f08c379a000000000000000000000000000000000000000000000000000000000815260040161186290612c3f565b60405180910390fd5b806006600084815260200190815260200160002090805190602001906118929291906120ec565b505050565b6001816000016000828254019250508190555050565b606060008214156118f5576040518060400160405280600181526020017f30000000000000000000000000000000000000000000000000000000000000008152509050611a55565b600082905060005b6000821461192757808061191090613036565b915050600a826119209190612e5e565b91506118fd565b60008167ffffffffffffffff811115611969577f4e487b7100000000000000000000000000000000000000000000000000000000600052604160045260246000fd5b6040519080825280601f01601f19166020018201604052801561199b5781602001600182028036833780820191505090505b5090505b60008514611a4e576001826119b49190612ee9565b9150600a856119c3919061307f565b60306119cf9190612e08565b60f81b818381518110611a0b577f4e487b7100000000000000000000000000000000000000000000000000000000600052603260045260246000fd5b60200101907effffffffffffffffffffffffffffffffffffffffffffffffffffffffffffff1916908160001a905350600a85611a479190612e5e565b945061199f565b8093505050505b919050565b600081604051602001611a6d9190612919565b6040516020818303038152906040528051906020012060001c9050919050565b8173ffffffffffffffffffffffffffffffffffffffff168373ffffffffffffffffffffffffffffffffffffffff161415611afc576040517f08c379a0000000000000000000000000000000000000000000000000000000008152600401611af390612b9f565b60405180910390fd5b80600560008573ffffffffffffffffffffffffffffffffffffffff1673ffffffffffffffffffffffffffffffffffffffff16815260200190815260200160002060008473ffffffffffffffffffffffffffffffffffffffff1673ffffffffffffffffffffffffffffffffffffffff16815260200190815260200160002060006101000a81548160ff0219169083151502179055508173ffffffffffffffffffffffffffffffffffffffff168373ffffffffffffffffffffffffffffffffffffffff167f17307eab39ab6107e8899845ad3d59bd9653f200f220920489ca2b5937696c3183604051611bed9190612b02565b60405180910390a3505050565b611c058484846113dd565b611c1184848484611d74565b611c50576040517f08c379a0000000000000000000000000000000000000000000000000000000008152600401611c4790612b3f565b60405180910390fd5b50505050565b606060405180602001604052806000815250905090565b6060611c78826111d2565b611cb7576040517f08c379a0000000000000000000000000000000000000000000000000000000008152600401611cae90612cdf565b60405180910390fd5b6000611cc1611c56565b90506000815111611ce15760405180602001604052806000815250611d0c565b80611ceb846118ad565b604051602001611cfc929190612930565b6040516020818303038152906040525b915050919050565b505050565b611d238383611f0b565b611d306000848484611d74565b611d6f576040517f08c379a0000000000000000000000000000000000000000000000000000000008152600401611d6690612b3f565b60405180910390fd5b505050565b6000611d958473ffffffffffffffffffffffffffffffffffffffff166120d9565b15611efe578373ffffffffffffffffffffffffffffffffffffffff1663150b7a02611dbe61123e565b8786866040518563ffffffff1660e01b8152600401611de09493929190612ab6565b602060405180830381600087803b158015611dfa57600080fd5b505af1925050508015611e2b57506040513d601f19601f82011682018060405250810190611e289190612430565b60015b611eae573d8060008114611e5b576040519150601f19603f3d011682016040523d82523d6000602084013e611e60565b606091505b50600081511415611ea6576040517f08c379a0000000000000000000000000000000000000000000000000000000008152600401611e9d90612b3f565b60405180910390fd5b805181602001fd5b63150b7a0260e01b7bffffffffffffffffffffffffffffffffffffffffffffffffffffffff1916817bffffffffffffffffffffffffffffffffffffffffffffffffffffffff191614915050611f03565b600190505b949350505050565b600073ffffffffffffffffffffffffffffffffffffffff168273ffffffffffffffffffffffffffffffffffffffff161415611f7b576040517f08c379a0000000000000000000000000000000000000000000000000000000008152600401611f7290612c5f565b60405180910390fd5b611f84816111d2565b15611fc4576040517f08c379a0000000000000000000000000000000000000000000000000000000008152600401611fbb90612b5f565b60405180910390fd5b611fd060008383611d14565b6001600360008473ffffffffffffffffffffffffffffffffffffffff1673ffffffffffffffffffffffffffffffffffffffff16815260200190815260200160002060008282546120209190612e08565b92505081905550816002600083815260200190815260200160002060006101000a81548173ffffffffffffffffffffffffffffffffffffffff021916908373ffffffffffffffffffffffffffffffffffffffff160217905550808273ffffffffffffffffffffffffffffffffffffffff16600073ffffffffffffffffffffffffffffffffffffffff167fddf252ad1be2c89b69c2b068fc378daa952ba7f163c4a11628f55a4df523b3ef60405160405180910390a45050565b600080823b905060008111915050919050565b8280546120f890612fd3565b90600052602060002090601f01602090048101928261211a5760008555612161565b82601f1061213357805160ff1916838001178555612161565b82800160010185558215612161579182015b82811115612160578251825591602001919060010190612145565b5b50905061216e9190612172565b5090565b5b8082111561218b576000816000905550600101612173565b5090565b60006121a261219d84612d7f565b612d5a565b9050828152602081018484840111156121ba57600080fd5b6121c5848285612f91565b509392505050565b6000813590506121dc816137b5565b92915050565b6000813590506121f1816137cc565b92915050565b600081359050612206816137e3565b92915050565b60008151905061221b816137e3565b92915050565b600082601f83011261223257600080fd5b813561224284826020860161218f565b91505092915050565b60008135905061225a816137fa565b92915050565b60006020828403121561227257600080fd5b6000612280848285016121cd565b91505092915050565b6000806040838503121561229c57600080fd5b60006122aa858286016121cd565b92505060206122bb858286016121cd565b9150509250929050565b6000806000606084860312156122da57600080fd5b60006122e8868287016121cd565b93505060206122f9868287016121cd565b925050604061230a8682870161224b565b9150509250925092565b6000806000806080858703121561232a57600080fd5b6000612338878288016121cd565b9450506020612349878288016121cd565b935050604061235a8782880161224b565b925050606085013567ffffffffffffffff81111561237757600080fd5b61238387828801612221565b91505092959194509250565b600080604083850312156123a257600080fd5b60006123b0858286016121cd565b92505060206123c1858286016121e2565b9150509250929050565b600080604083850312156123de57600080fd5b60006123ec858286016121cd565b92505060206123fd8582860161224b565b9150509250929050565b60006020828403121561241957600080fd5b6000612427848285016121f7565b91505092915050565b60006020828403121561244257600080fd5b60006124508482850161220c565b91505092915050565b60006020828403121561246b57600080fd5b60006124798482850161224b565b91505092915050565b61248b81612f1d565b82525050565b61249a81612f2f565b82525050565b60006124ab82612dc5565b6124b58185612ddb565b93506124c5818560208601612fa0565b6124ce8161316c565b840191505092915050565b60006124e482612dd0565b6124ee8185612dec565b93506124fe818560208601612fa0565b6125078161316c565b840191505092915050565b600061251d82612dd0565b6125278185612dfd565b9350612537818560208601612fa0565b80840191505092915050565b6000815461255081612fd3565b61255a8186612dfd565b945060018216600081146125755760018114612586576125b9565b60ff198316865281860193506125b9565b61258f85612db0565b60005b838110156125b157815481890152600182019150602081019050612592565b838801955050505b50505092915050565b60006125cf603283612dec565b91506125da8261317d565b604082019050919050565b60006125f2601c83612dec565b91506125fd826131cc565b602082019050919050565b6000612615600683612dfd565b9150612620826131f5565b600682019050919050565b6000612638602483612dec565b91506126438261321e565b604082019050919050565b600061265b601983612dec565b91506126668261326d565b602082019050919050565b600061267e602c83612dec565b915061268982613296565b604082019050919050565b60006126a1600d83612dfd565b91506126ac826132e5565b600d82019050919050565b60006126c4603883612dec565b91506126cf8261330e565b604082019050919050565b60006126e7602a83612dec565b91506126f28261335d565b604082019050919050565b600061270a602983612dec565b9150612715826133ac565b604082019050919050565b600061272d602e83612dec565b9150612738826133fb565b604082019050919050565b6000612750600483612dfd565b915061275b8261344a565b600482019050919050565b6000612773600283612dfd565b915061277e82613473565b600282019050919050565b6000612796602083612dec565b91506127a18261349c565b602082019050919050565b60006127b9603183612dec565b91506127c4826134c5565b604082019050919050565b60006127dc602c83612dec565b91506127e782613514565b604082019050919050565b60006127ff602983612dec565b915061280a82613563565b604082019050919050565b6000612822602f83612dec565b915061282d826135b2565b604082019050919050565b6000612845600a83612dfd565b915061285082613601565b600a82019050919050565b6000612868600783612dfd565b91506128738261362a565b600782019050919050565b600061288b602183612dec565b915061289682613653565b604082019050919050565b60006128ae601d83612dfd565b91506128b9826136a2565b601d82019050919050565b60006128d1603183612dec565b91506128dc826136cb565b604082019050919050565b60006128f4606883612dfd565b91506128ff8261371a565b606882019050919050565b61291381612f87565b82525050565b60006129258284612512565b915081905092915050565b600061293c8285612512565b91506129488284612512565b91508190509392505050565b60006129608286612512565b915061296c8285612512565b91506129788284612512565b9150819050949350505050565b60006129918287612543565b915061299d8286612512565b91506129a98285612512565b91506129b58284612512565b91506129c082612694565b915081905095945050505050565b60006129d982612608565b91506129e58284612512565b915081905092915050565b60006129fb82612743565b9150612a078284612512565b915081905092915050565b6000612a1d82612838565b9150612a298285612512565b9150612a34826128e7565b9150612a408284612512565b9150612a4b82612766565b91508190509392505050565b6000612a628261285b565b9150612a6e8284612512565b915081905092915050565b6000612a84826128a1565b9150612a908284612512565b915081905092915050565b6000602082019050612ab06000830184612482565b92915050565b6000608082019050612acb6000830187612482565b612ad86020830186612482565b612ae5604083018561290a565b8181036060830152612af781846124a0565b905095945050505050565b6000602082019050612b176000830184612491565b92915050565b60006020820190508181036000830152612b3781846124d9565b905092915050565b60006020820190508181036000830152612b58816125c2565b9050919050565b60006020820190508181036000830152612b78816125e5565b9050919050565b60006020820190508181036000830152612b988161262b565b9050919050565b60006020820190508181036000830152612bb88161264e565b9050919050565b60006020820190508181036000830152612bd881612671565b9050919050565b60006020820190508181036000830152612bf8816126b7565b9050919050565b60006020820190508181036000830152612c18816126da565b9050919050565b60006020820190508181036000830152612c38816126fd565b9050919050565b60006020820190508181036000830152612c5881612720565b9050919050565b60006020820190508181036000830152612c7881612789565b9050919050565b60006020820190508181036000830152612c98816127ac565b9050919050565b60006020820190508181036000830152612cb8816127cf565b9050919050565b60006020820190508181036000830152612cd8816127f2565b9050919050565b60006020820190508181036000830152612cf881612815565b9050919050565b60006020820190508181036000830152612d188161287e565b9050919050565b60006020820190508181036000830152612d38816128c4565b9050919050565b6000602082019050612d54600083018461290a565b92915050565b6000612d64612d75565b9050612d708282613005565b919050565b6000604051905090565b600067ffffffffffffffff821115612d9a57612d9961313d565b5b612da38261316c565b9050602081019050919050565b60008190508160005260206000209050919050565b600081519050919050565b600081519050919050565b600082825260208201905092915050565b600082825260208201905092915050565b600081905092915050565b6000612e1382612f87565b9150612e1e83612f87565b9250827fffffffffffffffffffffffffffffffffffffffffffffffffffffffffffffffff03821115612e5357612e526130b0565b5b828201905092915050565b6000612e6982612f87565b9150612e7483612f87565b925082612e8457612e836130df565b5b828204905092915050565b6000612e9a82612f87565b9150612ea583612f87565b9250817fffffffffffffffffffffffffffffffffffffffffffffffffffffffffffffffff0483118215151615612ede57612edd6130b0565b5b828202905092915050565b6000612ef482612f87565b9150612eff83612f87565b925082821015612f1257612f116130b0565b5b828203905092915050565b6000612f2882612f67565b9050919050565b60008115159050919050565b60007fffffffff0000000000000000000000000000000000000000000000000000000082169050919050565b600073ffffffffffffffffffffffffffffffffffffffff82169050919050565b6000819050919050565b82818337600083830152505050565b60005b83811015612fbe578082015181840152602081019050612fa3565b83811115612fcd576000848401525b50505050565b60006002820490506001821680612feb57607f821691505b60208210811415612fff57612ffe61310e565b5b50919050565b61300e8261316c565b810181811067ffffffffffffffff8211171561302d5761302c61313d565b5b80604052505050565b600061304182612f87565b91507fffffffffffffffffffffffffffffffffffffffffffffffffffffffffffffffff821415613074576130736130b0565b5b600182019050919050565b600061308a82612f87565b915061309583612f87565b9250826130a5576130a46130df565b5b828206905092915050565b7f4e487b7100000000000000000000000000000000000000000000000000000000600052601160045260246000fd5b7f4e487b7100000000000000000000000000000000000000000000000000000000600052601260045260246000fd5b7f4e487b7100000000000000000000000000000000000000000000000000000000600052602260045260246000fd5b7f4e487b7100000000000000000000000000000000000000000000000000000000600052604160045260246000fd5b6000601f19601f8301169050919050565b7f4552433732313a207472616e7366657220746f206e6f6e20455243373231526560008201527f63656976657220696d706c656d656e7465720000000000000000000000000000602082015250565b7f4552433732313a20746f6b656e20616c7265616479206d696e74656400000000600082015250565b7f776561706f6e0000000000000000000000000000000000000000000000000000600082015250565b7f4552433732313a207472616e7366657220746f20746865207a65726f2061646460008201527f7265737300000000000000000000000000000000000000000000000000000000602082015250565b7f4552433732313a20617070726f766520746f2063616c6c657200000000000000600082015250565b7f4552433732313a206f70657261746f7220717565727920666f72206e6f6e657860008201527f697374656e7420746f6b656e0000000000000000000000000000000000000000602082015250565b7f3c2f746578743e3c2f7376673e00000000000000000000000000000000000000600082015250565b7f4552433732313a20617070726f76652063616c6c6572206973206e6f74206f7760008201527f6e6572206e6f7220617070726f76656420666f7220616c6c0000000000000000602082015250565b7f4552433732313a2062616c616e636520717565727920666f7220746865207a6560008201527f726f206164647265737300000000000000000000000000000000000000000000602082015250565b7f4552433732313a206f776e657220717565727920666f72206e6f6e657869737460008201527f656e7420746f6b656e0000000000000000000000000000000000000000000000602082015250565b7f45524337323155524953746f726167653a2055524920736574206f66206e6f6e60008201527f6578697374656e7420746f6b656e000000000000000000000000000000000000602082015250565b7f72616e6b00000000000000000000000000000000000000000000000000000000600082015250565b7f227d000000000000000000000000000000000000000000000000000000000000600082015250565b7f4552433732313a206d696e7420746f20746865207a65726f2061646472657373600082015250565b7f45524337323155524953746f726167653a2055524920717565727920666f722060008201527f6e6f6e6578697374656e7420746f6b656e000000000000000000000000000000602082015250565b7f4552433732313a20617070726f76656420717565727920666f72206e6f6e657860008201527f697374656e7420746f6b656e0000000000000000000000000000000000000000602082015250565b7f4552433732313a207472616e73666572206f6620746f6b656e2074686174206960008201527f73206e6f74206f776e0000000000000000000000000000000000000000000000602082015250565b7f4552433732314d657461646174613a2055524920717565727920666f72206e6f60008201527f6e6578697374656e7420746f6b656e0000000000000000000000000000000000602082015250565b7f7b226e616d65223a202200000000000000000000000000000000000000000000600082015250565b7f656c656d656e7400000000000000000000000000000000000000000000000000600082015250565b7f4552433732313a20617070726f76616c20746f2063757272656e74206f776e6560008201527f7200000000000000000000000000000000000000000000000000000000000000602082015250565b7f646174613a6170706c69636174696f6e2f6a736f6e3b6261736536342c000000600082015250565b7f4552433732313a207472616e736665722063616c6c6572206973206e6f74206f60008201527f776e6572206e6f7220617070726f766564000000000000000000000000000000602082015250565b7f222c20226465736372697074696f6e223a20224120686967686c79206163636c60008201527f61696d656420636f6c6c656374696f6e20457465726e616c2057617272696f7260208201527f73222c2022696d616765223a2022646174613a696d6167652f7376672b786d6c60408201527f3b6261736536342c000000000000000000000000000000000000000000000000606082015250565b6137be81612f1d565b81146137c957600080fd5b50565b6137d581612f2f565b81146137e057600080fd5b50565b6137ec81612f3b565b81146137f757600080fd5b50565b61380381612f87565b811461380e57600080fd5b5056fe4142434445464748494a4b4c4d4e4f505152535455565758595a6162636465666768696a6b6c6d6e6f707172737475767778797a303132333435363738392b2fa264697066735822122023e0b6f532ab1b8d3e3b8fd1cbf6608cf833ee56dea8d2e5f97cf5a59ea304c064736f6c634300080300333c73766720786d6c6e733d27687474703a2f2f7777772e77332e6f72672f323030302f73766727207072657365727665417370656374526174696f3d27784d696e594d696e206d656574272076696577426f783d273020302033353020333530273e3c7374796c653e2e62617365207b2066696c6c3a2077686974653b20666f6e742d66616d696c793a2073657269663b20666f6e742d73697a653a20323470783b207d3c2f7374796c653e3c726563742077696474683d273130302527206865696768743d2731303025272066696c6c3d27626c61636b27202f3e3c7465787420783d273530252720793d273530252720636c6173733d27626173652720646f6d696e616e742d626173656c696e653d276d6964646c652720746578742d616e63686f723d276d6964646c65273e",
	"linkReferences": {},
	"deployedLinkReferences": {}
}